:100112000D0A53797374656D2053746172740D0AFC
:100122000053656E64206461746120616E6420779F
:1001320061697420746F20736176650D0A000D0A7F
:1001420053415645204F4B0D0A00454550524F4DE5
:0F0152003A004E4F20444154410D0A000D0A005F
:09033700015E00025F0000C1003C
:1000B2001202EE1203097BFF7A0179121202B012C8
:1000C20001617BFF7A0179231202B0300119C2016A
:1000D200E55EC3943C50097422255EF8A621055EB4
:1000E200E4F55FF560C2003000E1C200E55ED39442
:1000F2000040D8120237E4F55E7BFF7A01794012A4
:1001020002B01201617BFF7A0179231202B080BB37
:10023700E55EFD7C00E4FF120289E4F508E508C3EA
:10024700955E5014E50804FF74222508F8E6FD7C46
:0802570000120289050880E590
:01025F00227C
:10016100E4FF1201DA8F097BFF7A01794C1202B0A8
:10017100E509F46009E5096005D3943C40087BFF7B
:100181007A017954801EE4F508E508C39509500EFB
:10019100E50804FF1201DA120320050880EB7BFF5A
:0701A1007A01795E1202B041
:0101A8002234
:03000B000201A946
:1001A900C0E0C0D0758A66758CFCE55ED3940040CA
:1001B9001B2000180560E5607002055F94E8E55FA3
:1001C90094034008755F00756000D200D0D0D0E07C
:0101D90032F3
:0300230002032CA9
:0B032C00309807859921C298D2013259
:08001A007F097EF4DEFEDFFC2D
:0100220022BB
:100289008F098C0A8D0B12034B7FA012026012009A
:100299000EAF0912026012000EAF0B1202601200BB
:0702A9000E12000302001A0F
:0201DA008F0A8A
:1001DC0012034B7FA012026012000EAF0A120260D3
:1001EC0012000E12034B7FA112026012000E1202BB
:0D01FC00D08F0B7F01120341120003AF0BE7
:0102090022D2
:09034B00D2A0D2A1C2A0C2A122DD
:07000300C2A0D2A1D2A0228D
:02026000AD07E8
:10026200E4FB7E007480A803088006CEA2E713CECA
:1002720013D8F8FFEDF582EF558224FF92A0D2A1A8
:06028200C2A10BBB08DC69
:010288002253
:1002D000E4FFD2A0FED2A130A00DA8067480088051
:0D02E00002C313D8FC4207C2A10EBE08E8FD
:0102ED0022EE
:0A034100EF24FF92A0D2A1C2A12276
:0B000E00D2A0D2A1A2A0E433FFC2A147
:0100190022C4
:1002EE0053877F75985053890F438920758BFA7504
:0B02FE008DFAC2ABD28ED2AFD2AC2280
:0C032000C2AC8F993099FDC299D2AC227A
:0602B0008B0A8A0B890C89
:1002B600E4FEAB0AAA0BA90C8E8275830012020A11
:0902C600FF60061203200E80E91E
:0102CF00220C
:100309005389F0438901758A66758CFCC28DD28C3C
:07031900D2A9D2AFC2B92244
:03000000020026D5
:0C002600787FE4F6D8FD75816002006D63
:10020A00BB010CE58229F582E5833AF583E02250A9
:10021A0006E92582F8E622BBFE06E92582F8E222F3
:0D022A00E58229F582E5833AF583E493220D
:100032000200B2E493A3F8E493A34003F68001F232
:1000420008DFF48029E493A3F85407240CC8C333CF
:10005200C4540F4420C8834004F456800146F6DF9E
:10006200E4800B0102040810204080900337E47EF4
:10007200019360BCA3FF543F30E509541FFEE49393
:10008200A360010ECF54C025E060A840B8E493A35A
:10009200FAE493A3F8E493A3C8C582C8CAC583CA85
:1000A200F0A3C8C582C8CAC583CADFE9DEE780BE3D
:0103400000BC
:00000001FF
